{
  "_format": "hh-sol-artifact-1",
  "contractName": "MyEpicNFT",
  "sourceName": "contracts/MyEpicNFT.sol",
  "abi": [
    {
      "inputs": [],
      "stateMutability": "nonpayable",
      "type": "constructor"
    },
    {
      "anonymous": false,
      "inputs": [
        {
          "indexed": true,
          "internalType": "address",
          "name": "owner",
          "type": "address"
        },
        {
          "indexed": true,
          "internalType": "address",
          "name": "approved",
          "type": "address"
        },
        {
          "indexed": true,
          "internalType": "uint256",
          "name": "tokenId",
          "type": "uint256"
        }
      ],
      "name": "Approval",
      "type": "event"
    },
    {
      "anonymous": false,
      "inputs": [
        {
          "indexed": true,
          "internalType": "address",
          "name": "owner",
          "type": "address"
        },
        {
          "indexed": true,
          "internalType": "address",
          "name": "operator",
          "type": "address"
        },
        {
          "indexed": false,
          "internalType": "bool",
          "name": "approved",
          "type": "bool"
        }
      ],
      "name": "ApprovalForAll",
      "type": "event"
    },
    {
      "anonymous": false,
      "inputs": [
        {
          "indexed": false,
          "internalType": "address",
          "name": "sender",
          "type": "address"
        },
        {
          "indexed": false,
          "internalType": "uint256",
          "name": "tokenId",
          "type": "uint256"
        }
      ],
      "name": "NewEpicNFTMinted",
      "type": "event"
    },
    {
      "anonymous": false,
      "inputs": [
        {
          "indexed": true,
          "internalType": "address",
          "name": "from",
          "type": "address"
        },
        {
          "indexed": true,
          "internalType": "address",
          "name": "to",
          "type": "address"
        },
        {
          "indexed": true,
          "internalType": "uint256",
          "name": "tokenId",
          "type": "uint256"
        }
      ],
      "name": "Transfer",
      "type": "event"
    },
    {
      "inputs": [
        {
          "internalType": "address",
          "name": "to",
          "type": "address"
        },
        {
          "internalType": "uint256",
          "name": "tokenId",
          "type": "uint256"
        }
      ],
      "name": "approve",
      "outputs": [],
      "stateMutability": "nonpayable",
      "type": "function"
    },
    {
      "inputs": [
        {
          "internalType": "address",
          "name": "owner",
          "type": "address"
        }
      ],
      "name": "balanceOf",
      "outputs": [
        {
          "internalType": "uint256",
          "name": "",
          "type": "uint256"
        }
      ],
      "stateMutability": "view",
      "type": "function"
    },
    {
      "inputs": [
        {
          "internalType": "uint256",
          "name": "tokenId",
          "type": "uint256"
        }
      ],
      "name": "getApproved",
      "outputs": [
        {
          "internalType": "address",
          "name": "",
          "type": "address"
        }
      ],
      "stateMutability": "view",
      "type": "function"
    },
    {
      "inputs": [],
      "name": "getCurrentNFTCount",
      "outputs": [
        {
          "internalType": "uint256",
          "name": "",
          "type": "uint256"
        }
      ],
      "stateMutability": "view",
      "type": "function"
    },
    {
      "inputs": [
        {
          "internalType": "address",
          "name": "owner",
          "type": "address"
        },
        {
          "internalType": "address",
          "name": "operator",
          "type": "address"
        }
      ],
      "name": "isApprovedForAll",
      "outputs": [
        {
          "internalType": "bool",
          "name": "",
          "type": "bool"
        }
      ],
      "stateMutability": "view",
      "type": "function"
    },
    {
      "inputs": [],
      "name": "makeAnEpicNFT",
      "outputs": [],
      "stateMutability": "nonpayable",
      "type": "function"
    },
    {
      "inputs": [],
      "name": "name",
      "outputs": [
        {
          "internalType": "string",
          "name": "",
          "type": "string"
        }
      ],
      "stateMutability": "view",
      "type": "function"
    },
    {
      "inputs": [
        {
          "internalType": "uint256",
          "name": "tokenId",
          "type": "uint256"
        }
      ],
      "name": "ownerOf",
      "outputs": [
        {
          "internalType": "address",
          "name": "",
          "type": "address"
        }
      ],
      "stateMutability": "view",
      "type": "function"
    },
    {
      "inputs": [
        {
          "internalType": "uint256",
          "name": "tokenId",
          "type": "uint256"
        }
      ],
      "name": "pickRandomColor",
      "outputs": [
        {
          "internalType": "string",
          "name": "",
          "type": "string"
        }
      ],
      "stateMutability": "view",
      "type": "function"
    },
    {
      "inputs": [
        {
          "internalType": "uint256",
          "name": "tokenId",
          "type": "uint256"
        }
      ],
      "name": "pickRandomFirstWord",
      "outputs": [
        {
          "internalType": "string",
          "name": "",
          "type": "string"
        }
      ],
      "stateMutability": "view",
      "type": "function"
    },
    {
      "inputs": [
        {
          "internalType": "uint256",
          "name": "tokenId",
          "type": "uint256"
        }
      ],
      "name": "pickRandomSecondWord",
      "outputs": [
        {
          "internalType": "string",
          "name": "",
          "type": "string"
        }
      ],
      "stateMutability": "view",
      "type": "function"
    },
    {
      "inputs": [
        {
          "internalType": "uint256",
          "name": "tokenId",
          "type": "uint256"
        }
      ],
      "name": "pickRandomThirdWord",
      "outputs": [
        {
          "internalType": "string",
          "name": "",
          "type": "string"
        }
      ],
      "stateMutability": "view",
      "type": "function"
    },
    {
      "inputs": [
        {
          "internalType": "address",
          "name": "from",
          "type": "address"
        },
        {
          "internalType": "address",
          "name": "to",
          "type": "address"
        },
        {
          "internalType": "uint256",
          "name": "tokenId",
          "type": "uint256"
        }
      ],
      "name": "safeTransferFrom",
      "outputs": [],
      "stateMutability": "nonpayable",
      "type": "function"
    },
    {
      "inputs": [
        {
          "internalType": "address",
          "name": "from",
          "type": "address"
        },
        {
          "internalType": "address",
          "name": "to",
          "type": "address"
        },
        {
          "internalType": "uint256",
          "name": "tokenId",
          "type": "uint256"
        },
        {
          "internalType": "bytes",
          "name": "_data",
          "type": "bytes"
        }
      ],
      "name": "safeTransferFrom",
      "outputs": [],
      "stateMutability": "nonpayable",
      "type": "function"
    },
    {
      "inputs": [
        {
          "internalType": "address",
          "name": "operator",
          "type": "address"
        },
        {
          "internalType": "bool",
          "name": "approved",
          "type": "bool"
        }
      ],
      "name": "setApprovalForAll",
      "outputs": [],
      "stateMutability": "nonpayable",
      "type": "function"
    },
    {
      "inputs": [
        {
          "internalType": "bytes4",
          "name": "interfaceId",
          "type": "bytes4"
        }
      ],
      "name": "supportsInterface",
      "outputs": [
        {
          "internalType": "bool",
          "name": "",
          "type": "bool"
        }
      ],
      "stateMutability": "view",
      "type": "function"
    },
    {
      "inputs": [],
      "name": "symbol",
      "outputs": [
        {
          "internalType": "string",
          "name": "",
          "type": "string"
        }
      ],
      "stateMutability": "view",
      "type": "function"
    },
    {
      "inputs": [
        {
          "internalType": "uint256",
          "name": "tokenId",
          "type": "uint256"
        }
      ],
      "name": "tokenURI",
      "outputs": [
        {
          "internalType": "string",
          "name": "",
          "type": "string"
        }
      ],
      "stateMutability": "view",
      "type": "function"
    },
    {
      "inputs": [
        {
          "internalType": "address",
          "name": "from",
          "type": "address"
        },
        {
          "internalType": "address",
          "name": "to",
          "type": "address"
        },
        {
          "internalType": "uint256",
          "name": "tokenId",
          "type": "uint256"
        }
      ],
      "name": "transferFrom",
      "outputs": [],
      "stateMutability": "nonpayable",
      "type": "function"
    }
  ],
  "bytecode": "0x608060405260405180610100016040528060d3815260200162004f9060d391396008908051906020019062000036929190620010f1565b5060405180608001604052806056815260200162005063605691396009908051906020019062000068929190620010f1565b506040518061024001604052806040518060400160405280600581526020017f546872656500000000000000000000000000000000000000000000000000000081525081526020016040518060400160405280600281526020017f4e6f00000000000000000000000000000000000000000000000000000000000081525081526020016040518060400160405280600481526020017f4d696e690000000000000000000000000000000000000000000000000000000081525081526020016040518060400160405280600581526020017f4769616e7400000000000000000000000000000000000000000000000000000081525081526020016040518060400160405280600381526020017f486579000000000000000000000000000000000000000000000000000000000081525081526020016040518060400160405280600881526020017f436f6e667573656400000000000000000000000000000000000000000000000081525081526020016040518060400160405280600681526020017f507265747479000000000000000000000000000000000000000000000000000081525081526020016040518060400160405280600581526020017f536f72727900000000000000000000000000000000000000000000000000000081525081526020016040518060400160405280600581526020017f537570657200000000000000000000000000000000000000000000000000000081525081526020016040518060400160405280600581526020017f457874726100000000000000000000000000000000000000000000000000000081525081526020016040518060400160405280600581526020017f556c74726100000000000000000000000000000000000000000000000000000081525081526020016040518060400160405280600581526020017f46756e6e7900000000000000000000000000000000000000000000000000000081525081526020016040518060400160405280600681526020017f4c6974746c65000000000000000000000000000000000000000000000000000081525081526020016040518060400160405280600281526020017f476f00000000000000000000000000000000000000000000000000000000000081525081526020016040518060400160405280600b81526020017f436f6d706c69636174656400000000000000000000000000000000000000000081525081526020016040518060400160405280600681526020017f5469636b6c79000000000000000000000000000000000000000000000000000081525081526020016040518060400160405280600681526020017f547269636b79000000000000000000000000000000000000000000000000000081525081526020016040518060400160405280600581526020017f42756d7079000000000000000000000000000000000000000000000000000000815250815250600a906012620004ab92919062001182565b506040518061028001604052806040518060400160405280600581526020017f53696c6c7900000000000000000000000000000000000000000000000000000081525081526020016040518060400160405280600581526020017f466973687900000000000000000000000000000000000000000000000000000081525081526020016040518060400160405280600681526020017f476c6f6f6d79000000000000000000000000000000000000000000000000000081525081526020016040518060400160405280600581526020017f46757a7a7900000000000000000000000000000000000000000000000000000081525081526020016040518060400160405280600481526020017f48617a790000000000000000000000000000000000000000000000000000000081525081526020016040518060400160405280600681526020017f536c65657079000000000000000000000000000000000000000000000000000081525081526020016040518060400160405280600681526020017f4772756d7079000000000000000000000000000000000000000000000000000081525081526020016040518060400160405280600581526020017f5368696e7900000000000000000000000000000000000000000000000000000081525081526020016040518060400160405280600681526020017f466c75666679000000000000000000000000000000000000000000000000000081525081526020016040518060400160405280600981526020017f53656e736974697665000000000000000000000000000000000000000000000081525081526020016040518060400160405280600681526020017f53706f6e6779000000000000000000000000000000000000000000000000000081525081526020016040518060400160405280600681526020017f437564646c79000000000000000000000000000000000000000000000000000081525081526020016040518060400160405280600581526020017f4a756d707900000000000000000000000000000000000000000000000000000081525081526020016040518060400160405280600681526020017f576967676c79000000000000000000000000000000000000000000000000000081525081526020016040518060400160405280600581526020017f536173737900000000000000000000000000000000000000000000000000000081525081526020016040518060400160405280600581526020017f416e67727900000000000000000000000000000000000000000000000000000081525081526020016040518060400160405280600481526020017f4c617a790000000000000000000000000000000000000000000000000000000081525081526020016040518060400160405280600581526020017f486170707900000000000000000000000000000000000000000000000000000081525081526020016040518060400160405280600681526020017f4d6967687479000000000000000000000000000000000000000000000000000081525081526020016040518060400160405280600581526020017f476f6f6679000000000000000000000000000000000000000000000000000000815250815250600b90601462000964929190620011e9565b506040518061024001604052806040518060400160405280600481526020017f466973680000000000000000000000000000000000000000000000000000000081525081526020016040518060400160405280600581526020017f476f6f736500000000000000000000000000000000000000000000000000000081525081526020016040518060400160405280600681526020017f446f6e6b6579000000000000000000000000000000000000000000000000000081525081526020016040518060400160405280600581526020017f507570707900000000000000000000000000000000000000000000000000000081525081526020016040518060400160405280600781526020017f476972616666650000000000000000000000000000000000000000000000000081525081526020016040518060400160405280600581526020017f5268696e6f00000000000000000000000000000000000000000000000000000081525081526020016040518060400160405280600681526020017f537069646572000000000000000000000000000000000000000000000000000081525081526020016040518060400160405280600381526020017f436f77000000000000000000000000000000000000000000000000000000000081525081526020016040518060400160405280600581526020017f4d6f75736500000000000000000000000000000000000000000000000000000081525081526020016040518060400160405280600481526020017f4475636b0000000000000000000000000000000000000000000000000000000081525081526020016040518060400160405280600581526020017f42756e6e7900000000000000000000000000000000000000000000000000000081525081526020016040518060400160405280600481526020017f46726f670000000000000000000000000000000000000000000000000000000081525081526020016040518060400160405280600481526020017f426561720000000000000000000000000000000000000000000000000000000081525081526020016040518060400160405280600581526020017f50616e646100000000000000000000000000000000000000000000000000000081525081526020016040518060400160405280600381526020017f466f78000000000000000000000000000000000000000000000000000000000081525081526020016040518060400160405280600481526020017f576f6c660000000000000000000000000000000000000000000000000000000081525081526020016040518060400160405280600a81526020017f576f6f647065636b65720000000000000000000000000000000000000000000081525081526020016040518060400160405280600381526020017f4261740000000000000000000000000000000000000000000000000000000000815250815250600c90601262000da792919062001182565b506040518060c001604052806040518060400160405280600681526020017f6f72616e6765000000000000000000000000000000000000000000000000000081525081526020016040518060400160405280600781526020017f233038433241380000000000000000000000000000000000000000000000000081525081526020016040518060400160405280600781526020017f6d6167656e74610000000000000000000000000000000000000000000000000081525081526020016040518060400160405280600481526020017f6379616e0000000000000000000000000000000000000000000000000000000081525081526020016040518060400160405280600681526020017f707572706c65000000000000000000000000000000000000000000000000000081525081526020016040518060400160405280600581526020017f62726f776e000000000000000000000000000000000000000000000000000000815250815250600d90600662000f2592919062001250565b5034801562000f3357600080fd5b506040518060400160405280600981526020017f5371756172654e465400000000000000000000000000000000000000000000008152506040518060400160405280600681526020017f5351554152450000000000000000000000000000000000000000000000000000815250816000908051906020019062000fb8929190620010f1565b50806001908051906020019062000fd1929190620010f1565b5050506200101f6040518060400160405280601181526020017f4e465420636f6e747261637420313031210000000000000000000000000000008152506200102560201b620014541760201c565b62001471565b620010c5816040516024016200103c919062001385565b6040516020818303038152906040527f41304fac000000000000000000000000000000000000000000000000000000007bffffffffffffffffffffffffffffffffffffffffffffffffffffffff19166020820180517bffffffffffffffffffffffffffffffffffffffffffffffffffffffff8381831617835250505050620010c860201b60201c565b50565b60008151905060006a636f6e736f6c652e6c6f679050602083016000808483855afa5050505050565b828054620010ff90620013fb565b90600052602060002090601f0160209004810192826200112357600085556200116f565b82601f106200113e57805160ff19168380011785556200116f565b828001600101855582156200116f579182015b828111156200116e57825182559160200191906001019062001151565b5b5090506200117e9190620012b7565b5090565b828054828255906000526020600020908101928215620011d6579160200282015b82811115620011d5578251829080519060200190620011c4929190620010f1565b5091602001919060010190620011a3565b5b509050620011e59190620012d6565b5090565b8280548282559060005260206000209081019282156200123d579160200282015b828111156200123c5782518290805190602001906200122b929190620010f1565b50916020019190600101906200120a565b5b5090506200124c9190620012d6565b5090565b828054828255906000526020600020908101928215620012a4579160200282015b82811115620012a357825182908051906020019062001292929190620010f1565b509160200191906001019062001271565b5b509050620012b39190620012d6565b5090565b5b80821115620012d2576000816000905550600101620012b8565b5090565b5b80821115620012fa5760008181620012f09190620012fe565b50600101620012d7565b5090565b5080546200130c90620013fb565b6000825580601f1062001320575062001341565b601f016020900490600052602060002090810190620013409190620012b7565b5b50565b60006200135182620013a9565b6200135d8185620013b4565b93506200136f818560208601620013c5565b6200137a8162001460565b840191505092915050565b60006020820190508181036000830152620013a1818462001344565b905092915050565b600081519050919050565b600082825260208201905092915050565b60005b83811015620013e5578082015181840152602081019050620013c8565b83811115620013f5576000848401525b50505050565b600060028204905060018216806200141457607f821691505b602082108114156200142b576200142a62001431565b5b50919050565b7f4e487b7100000000000000000000000000000000000000000000000000000000600052602260045260246000fd5b6000601f19601f8301169050919050565b613b0f80620014816000396000f3fe608060405234801561001057600080fd5b50600436106101215760003560e01c80636352211e116100ad578063b88d4fde11610071578063b88d4fde14610340578063c575757a1461035c578063c87b56dd1461038c578063de9d132f146103bc578063e985e9c5146103c657610121565b80636352211e1461027657806370a08231146102a657806395d89b41146102d6578063a22cb465146102f4578063b187301f1461031057610121565b806323b872dd116100f457806323b872dd146101c05780632de38d68146101dc57806342842e0e1461020c578063514dc8c6146102285780635c7059821461025857610121565b806301ffc9a71461012657806306fdde0314610156578063081812fc14610174578063095ea7b3146101a4575b600080fd5b610140600480360381019061013b91906126e7565b6103f6565b60405161014d9190613385565b60405180910390f35b61015e6104d8565b60405161016b91906133a0565b60405180910390f35b61018e60048036038101906101899190612739565b61056a565b60405161019b91906132f5565b60405180910390f35b6101be60048036038101906101b991906126ab565b6105ef565b005b6101da60048036038101906101d591906125a5565b610707565b005b6101f660048036038101906101f19190612739565b610767565b60405161020391906133a0565b60405180910390f35b610226600480360381019061022191906125a5565b610885565b005b610242600480360381019061023d9190612739565b6108a5565b60405161024f91906133a0565b60405180910390f35b6102606109c3565b60405161026d9190613600565b60405180910390f35b610290600480360381019061028b9190612739565b6109d4565b60405161029d91906132f5565b60405180910390f35b6102c060048036038101906102bb9190612540565b610a86565b6040516102cd9190613600565b60405180910390f35b6102de610b3e565b6040516102eb91906133a0565b60405180910390f35b61030e6004803603810190610309919061266f565b610bd0565b005b61032a60048036038101906103259190612739565b610d51565b60405161033791906133a0565b60405180910390f35b61035a600480360381019061035591906125f4565b610e6f565b005b61037660048036038101906103719190612739565b610ed1565b60405161038391906133a0565b60405180910390f35b6103a660048036038101906103a19190612739565b610fef565b6040516103b391906133a0565b60405180910390f35b6103c4611141565b005b6103e060048036038101906103db9190612569565b6113c0565b6040516103ed9190613385565b60405180910390f35b60007f80ac58cd000000000000000000000000000000000000000000000000000000007bffffffffffffffffffffffffffffffffffffffffffffffffffffffff1916827bffffffffffffffffffffffffffffffffffffffffffffffffffffffff191614806104c157507f5b5e139f000000000000000000000000000000000000000000000000000000007bffffffffffffffffffffffffffffffffffffffffffffffffffffffff1916827bffffffffffffffffffffffffffffffffffffffffffffffffffffffff1916145b806104d157506104d0826114ed565b5b9050919050565b6060600080546104e79061389f565b80601f01602080910402602001604051908101604052809291908181526020018280546105139061389f565b80156105605780601f1061053557610100808354040283529160200191610560565b820191906000526020600020905b81548152906001019060200180831161054357829003601f168201915b5050505050905090565b600061057582611557565b6105b4576040517f08c379a00000000000000000000000000000000000000000000000000000000081526004016105ab90613560565b60405180910390fd5b6004600083815260200190815260200160002060009054906101000a900473ffffffffffffffffffffffffffffffffffffffff169050919050565b60006105fa826109d4565b90508073ffffffffffffffffffffffffffffffffffffffff168373ffffffffffffffffffffffffffffffffffffffff16141561066b576040517f08c379a0000000000000000000000000000000000000000000000000000000008152600401610662906135c0565b60405180910390fd5b8073ffffffffffffffffffffffffffffffffffffffff1661068a6115c3565b73ffffffffffffffffffffffffffffffffffffffff1614806106b957506106b8816106b36115c3565b6113c0565b5b6106f8576040517f08c379a00000000000000000000000000000000000000000000000000000000081526004016106ef906134a0565b60405180910390fd5b61070283836115cb565b505050565b6107186107126115c3565b82611684565b610757576040517f08c379a000000000000000000000000000000000000000000000000000000000815260040161074e906135e0565b60405180910390fd5b610762838383611762565b505050565b6060600061079b610777846119be565b604051602001610787919061328f565b604051602081830303815290604052611b6b565b9050600a80549050816107ae919061391a565b9050600a81815481106107ea577f4e487b7100000000000000000000000000000000000000000000000000000000600052603260045260246000fd5b9060005260206000200180546107ff9061389f565b80601f016020809104026020016040519081016040528092919081815260200182805461082b9061389f565b80156108785780601f1061084d57610100808354040283529160200191610878565b820191906000526020600020905b81548152906001019060200180831161085b57829003601f168201915b5050505050915050919050565b6108a083838360405180602001604052806000815250610e6f565b505050565b606060006108d96108b5846119be565b6040516020016108c591906132d3565b604051602081830303815290604052611b6b565b9050600d80549050816108ec919061391a565b9050600d8181548110610928577f4e487b7100000000000000000000000000000000000000000000000000000000600052603260045260246000fd5b90600052602060002001805461093d9061389f565b80601f01602080910402602001604051908101604052809291908181526020018280546109699061389f565b80156109b65780601f1061098b576101008083540402835291602001916109b6565b820191906000526020600020905b81548152906001019060200180831161099957829003601f168201915b5050505050915050919050565b60006109cf6007611b9e565b905090565b6000806002600084815260200190815260200160002060009054906101000a900473ffffffffffffffffffffffffffffffffffffffff169050600073ffffffffffffffffffffffffffffffffffffffff168173ffffffffffffffffffffffffffffffffffffffff161415610a7d576040517f08c379a0000000000000000000000000000000000000000000000000000000008152600401610a74906134e0565b60405180910390fd5b80915050919050565b60008073ffffffffffffffffffffffffffffffffffffffff168273ffffffffffffffffffffffffffffffffffffffff161415610af7576040517f08c379a0000000000000000000000000000000000000000000000000000000008152600401610aee906134c0565b60405180910390fd5b600360008373ffffffffffffffffffffffffffffffffffffffff1673ffffffffffffffffffffffffffffffffffffffff168152602001908152602001600020549050919050565b606060018054610b4d9061389f565b80601f0160208091040260200160405190810160405280929190818152602001828054610b799061389f565b8015610bc65780601f10610b9b57610100808354040283529160200191610bc6565b820191906000526020600020905b815481529060010190602001808311610ba957829003601f168201915b5050505050905090565b610bd86115c3565b73ffffffffffffffffffffffffffffffffffffffff168273ffffffffffffffffffffffffffffffffffffffff161415610c46576040517f08c379a0000000000000000000000000000000000000000000000000000000008152600401610c3d90613460565b60405180910390fd5b8060056000610c536115c3565b73ffffffffffffffffffffffffffffffffffffffff1673ffffffffffffffffffffffffffffffffffffffff16815260200190815260200160002060008473ffffffffffffffffffffffffffffffffffffffff1673ffffffffffffffffffffffffffffffffffffffff16815260200190815260200160002060006101000a81548160ff0219169083151502179055508173ffffffffffffffffffffffffffffffffffffffff16610d006115c3565b73ffffffffffffffffffffffffffffffffffffffff167f17307eab39ab6107e8899845ad3d59bd9653f200f220920489ca2b5937696c3183604051610d459190613385565b60405180910390a35050565b60606000610d85610d61846119be565b604051602001610d719190613228565b604051602081830303815290604052611b6b565b9050600b8054905081610d98919061391a565b9050600b8181548110610dd4577f4e487b7100000000000000000000000000000000000000000000000000000000600052603260045260246000fd5b906000526020600020018054610de99061389f565b80601f0160208091040260200160405190810160405280929190818152602001828054610e159061389f565b8015610e625780601f10610e3757610100808354040283529160200191610e62565b820191906000526020600020905b815481529060010190602001808311610e4557829003601f168201915b5050505050915050919050565b610e80610e7a6115c3565b83611684565b610ebf576040517f08c379a0000000000000000000000000000000000000000000000000000000008152600401610eb6906135e0565b60405180910390fd5b610ecb84848484611bac565b50505050565b60606000610f05610ee1846119be565b604051602001610ef19190613206565b604051602081830303815290604052611b6b565b9050600c8054905081610f18919061391a565b9050600c8181548110610f54577f4e487b7100000000000000000000000000000000000000000000000000000000600052603260045260246000fd5b906000526020600020018054610f699061389f565b80601f0160208091040260200160405190810160405280929190818152602001828054610f959061389f565b8015610fe25780601f10610fb757610100808354040283529160200191610fe2565b820191906000526020600020905b815481529060010190602001808311610fc557829003601f168201915b5050505050915050919050565b6060610ffa82611557565b611039576040517f08c379a000000000000000000000000000000000000000000000000000000000815260040161103090613540565b60405180910390fd5b60006006600084815260200190815260200160002080546110599061389f565b80601f01602080910402602001604051908101604052809291908181526020018280546110859061389f565b80156110d25780601f106110a7576101008083540402835291602001916110d2565b820191906000526020600020905b8154815290600101906020018083116110b557829003601f168201915b5050505050905060006110e3611c08565b90506000815114156110f957819250505061113c565b60008251111561112e578082604051602001611116929190613168565b6040516020818303038152906040529250505061113c565b61113784611c1f565b925050505b919050565b600061114d6007611b9e565b9050600061115a82610767565b9050600061116783610d51565b9050600061117484610ed1565b9050600083838360405160200161118d9392919061318c565b604051602081830303815290604052905060006111a9866108a5565b905060006008826009856040516020016111c694939291906131bd565b60405160208183030381529060405290506112156040518060400160405280601581526020017f0a2d2d2d2d2d2d2d2d2d2d2d2d2d2d2d2d2d2d2d2d0000000000000000000000815250611454565b61121e81611454565b61125c6040518060400160405280601581526020017f2d2d2d2d2d2d2d2d2d2d2d2d2d2d2d2d2d2d2d2d0a0000000000000000000000815250611454565b60006112908461126b84611cc6565b60405160200161127c92919061324a565b604051602081830303815290604052611cc6565b90506000816040516020016112a591906132b1565b60405160208183030381529060405290506112f46040518060400160405280601581526020017f0a2d2d2d2d2d2d2d2d2d2d2d2d2d2d2d2d2d2d2d2d0000000000000000000000815250611454565b6112fd81611454565b61133b6040518060400160405280601581526020017f2d2d2d2d2d2d2d2d2d2d2d2d2d2d2d2d2d2d2d2d0a0000000000000000000000815250611454565b611345338a611e84565b61134f8982611ea2565b6113596007611f16565b61137c604051806060016040528060258152602001613a75602591398a33611f2c565b7febb98688741ffa4c7589bf325de30cf7becb63de567842e1ccdb6cb949fdc82c338a6040516113ad92919061335c565b60405180910390a1505050505050505050565b6000600560008473ffffffffffffffffffffffffffffffffffffffff1673ffffffffffffffffffffffffffffffffffffffff16815260200190815260200160002060008373ffffffffffffffffffffffffffffffffffffffff1673ffffffffffffffffffffffffffffffffffffffff16815260200190815260200160002060009054906101000a900460ff16905092915050565b6114ea8160405160240161146891906133a0565b6040516020818303038152906040527f41304fac000000000000000000000000000000000000000000000000000000007bffffffffffffffffffffffffffffffffffffffffffffffffffffffff19166020820180517bffffffffffffffffffffffffffffffffffffffffffffffffffffffff8381831617835250505050611fcb565b50565b60007f01ffc9a7000000000000000000000000000000000000000000000000000000007bffffffffffffffffffffffffffffffffffffffffffffffffffffffff1916827bffffffffffffffffffffffffffffffffffffffffffffffffffffffff1916149050919050565b60008073ffffffffffffffffffffffffffffffffffffffff166002600084815260200190815260200160002060009054906101000a900473ffffffffffffffffffffffffffffffffffffffff1673ffffffffffffffffffffffffffffffffffffffff1614159050919050565b600033905090565b816004600083815260200190815260200160002060006101000a81548173ffffffffffffffffffffffffffffffffffffffff021916908373ffffffffffffffffffffffffffffffffffffffff160217905550808273ffffffffffffffffffffffffffffffffffffffff1661163e836109d4565b73ffffffffffffffffffffffffffffffffffffffff167f8c5be1e5ebec7d5bd14f71427d1e84f3dd0314c0f7b2291e5b200ac8c7c3b92560405160405180910390a45050565b600061168f82611557565b6116ce576040517f08c379a00000000000000000000000000000000000000000000000000000000081526004016116c590613480565b60405180910390fd5b60006116d9836109d4565b90508073ffffffffffffffffffffffffffffffffffffffff168473ffffffffffffffffffffffffffffffffffffffff16148061174857508373ffffffffffffffffffffffffffffffffffffffff166117308461056a565b73ffffffffffffffffffffffffffffffffffffffff16145b80611759575061175881856113c0565b5b91505092915050565b8273ffffffffffffffffffffffffffffffffffffffff16611782826109d4565b73ffffffffffffffffffffffffffffffffffffffff16146117d8576040517f08c379a00000000000000000000000000000000000000000000000000000000081526004016117cf90613580565b60405180910390fd5b600073ffffffffffffffffffffffffffffffffffffffff168273ffffffffffffffffffffffffffffffffffffffff161415611848576040517f08c379a000000000000000000000000000000000000000000000000000000000815260040161183f90613440565b60405180910390fd5b611853838383611ff4565b61185e6000826115cb565b6001600360008573ffffffffffffffffffffffffffffffffffffffff1673ffffffffffffffffffffffffffffffffffffffff16815260200190815260200160002060008282546118ae91906137b5565b925050819055506001600360008473ffffffffffffffffffffffffffffffffffffffff1673ffffffffffffffffffffffffffffffffffffffff168152602001908152602001600020600082825461190591906136d4565b92505081905550816002600083815260200190815260200160002060006101000a81548173ffffffffffffffffffffffffffffffffffffffff021916908373ffffffffffffffffffffffffffffffffffffffff160217905550808273ffffffffffffffffffffffffffffffffffffffff168473ffffffffffffffffffffffffffffffffffffffff167fddf252ad1be2c89b69c2b068fc378daa952ba7f163c4a11628f55a4df523b3ef60405160405180910390a4505050565b60606000821415611a06576040518060400160405280600181526020017f30000000000000000000000000000000000000000000000000000000000000008152509050611b66565b600082905060005b60008214611a38578080611a21906138d1565b915050600a82611a31919061372a565b9150611a0e565b60008167ffffffffffffffff811115611a7a577f4e487b7100000000000000000000000000000000000000000000000000000000600052604160045260246000fd5b6040519080825280601f01601f191660200182016040528015611aac5781602001600182028036833780820191505090505b5090505b60008514611b5f57600182611ac591906137b5565b9150600a85611ad4919061391a565b6030611ae091906136d4565b60f81b818381518110611b1c577f4e487b7100000000000000000000000000000000000000000000000000000000600052603260045260246000fd5b60200101907effffffffffffffffffffffffffffffffffffffffffffffffffffffffffffff1916908160001a905350600a85611b58919061372a565b9450611ab0565b8093505050505b919050565b600081604051602001611b7e9190613151565b6040516020818303038152906040528051906020012060001c9050919050565b600081600001549050919050565b611bb7848484611762565b611bc384848484611ff9565b611c02576040517f08c379a0000000000000000000000000000000000000000000000000000000008152600401611bf990613400565b60405180910390fd5b50505050565b606060405180602001604052806000815250905090565b6060611c2a82611557565b611c69576040517f08c379a0000000000000000000000000000000000000000000000000000000008152600401611c60906135a0565b60405180910390fd5b6000611c73611c08565b90506000815111611c935760405180602001604052806000815250611cbe565b80611c9d846119be565b604051602001611cae929190613168565b6040516020818303038152906040525b915050919050565b60606000825190506000811415611cef5760405180602001604052806000815250915050611e7f565b60006003600283611d0091906136d4565b611d0a919061372a565b6004611d16919061375b565b90506000602082611d2791906136d4565b67ffffffffffffffff811115611d66577f4e487b7100000000000000000000000000000000000000000000000000000000600052604160045260246000fd5b6040519080825280601f01601f191660200182016040528015611d985781602001600182028036833780820191505090505b5090506000604051806060016040528060408152602001613a9a604091399050600181016020830160005b86811015611e3c5760038101905062ffffff818a015116603f8160121c168401518060081b905060ff603f83600c1c1686015116810190508060081b905060ff603f8360061c1686015116810190508060081b905060ff603f831686015116810190508060e01b90508084526004840193505050611dc3565b506003860660018114611e565760028114611e6657611e71565b613d3d60f01b6002830352611e71565b603d60f81b60018303525b508484525050819450505050505b919050565b611e9e828260405180602001604052806000815250612190565b5050565b611eab82611557565b611eea576040517f08c379a0000000000000000000000000000000000000000000000000000000008152600401611ee190613500565b60405180910390fd5b80600660008481526020019081526020016000209080519060200190611f119291906123cc565b505050565b6001816000016000828254019250508190555050565b611fc6838383604051602401611f44939291906133c2565b6040516020818303038152906040527fe3849f79000000000000000000000000000000000000000000000000000000007bffffffffffffffffffffffffffffffffffffffffffffffffffffffff19166020820180517bffffffffffffffffffffffffffffffffffffffffffffffffffffffff8381831617835250505050611fcb565b505050565b60008151905060006a636f6e736f6c652e6c6f679050602083016000808483855afa5050505050565b505050565b600061201a8473ffffffffffffffffffffffffffffffffffffffff166121eb565b15612183578373ffffffffffffffffffffffffffffffffffffffff1663150b7a026120436115c3565b8786866040518563ffffffff1660e01b81526004016120659493929190613310565b602060405180830381600087803b15801561207f57600080fd5b505af19250505080156120b057506040513d601f19601f820116820180604052508101906120ad9190612710565b60015b612133573d80600081146120e0576040519150601f19603f3d011682016040523d82523d6000602084013e6120e5565b606091505b5060008151141561212b576040517f08c379a000000000000000000000000000000000000000000000000000000000815260040161212290613400565b60405180910390fd5b805181602001fd5b63150b7a0260e01b7bffffffffffffffffffffffffffffffffffffffffffffffffffffffff1916817bffffffffffffffffffffffffffffffffffffffffffffffffffffffff191614915050612188565b600190505b949350505050565b61219a83836121fe565b6121a76000848484611ff9565b6121e6576040517f08c379a00000000000000000000000000000000000000000000000000000000081526004016121dd90613400565b60405180910390fd5b505050565b600080823b905060008111915050919050565b600073ffffffffffffffffffffffffffffffffffffffff168273ffffffffffffffffffffffffffffffffffffffff16141561226e576040517f08c379a000000000000000000000000000000000000000000000000000000000815260040161226590613520565b60405180910390fd5b61227781611557565b156122b7576040517f08c379a00000000000000000000000000000000000000000000000000000000081526004016122ae90613420565b60405180910390fd5b6122c360008383611ff4565b6001600360008473ffffffffffffffffffffffffffffffffffffffff1673ffffffffffffffffffffffffffffffffffffffff168152602001908152602001600020600082825461231391906136d4565b92505081905550816002600083815260200190815260200160002060006101000a81548173ffffffffffffffffffffffffffffffffffffffff021916908373ffffffffffffffffffffffffffffffffffffffff160217905550808273ffffffffffffffffffffffffffffffffffffffff16600073ffffffffffffffffffffffffffffffffffffffff167fddf252ad1be2c89b69c2b068fc378daa952ba7f163c4a11628f55a4df523b3ef60405160405180910390a45050565b8280546123d89061389f565b90600052602060002090601f0160209004810192826123fa5760008555612441565b82601f1061241357805160ff1916838001178555612441565b82800160010185558215612441579182015b82811115612440578251825591602001919060010190612425565b5b50905061244e9190612452565b5090565b5b8082111561246b576000816000905550600101612453565b5090565b600061248261247d8461364c565b61361b565b90508281526020810184848401111561249a57600080fd5b6124a584828561385d565b509392505050565b6000813590506124bc81613a18565b92915050565b6000813590506124d181613a2f565b92915050565b6000813590506124e681613a46565b92915050565b6000815190506124fb81613a46565b92915050565b600082601f83011261251257600080fd5b813561252284826020860161246f565b91505092915050565b60008135905061253a81613a5d565b92915050565b60006020828403121561255257600080fd5b6000612560848285016124ad565b91505092915050565b6000806040838503121561257c57600080fd5b600061258a858286016124ad565b925050602061259b858286016124ad565b9150509250929050565b6000806000606084860312156125ba57600080fd5b60006125c8868287016124ad565b93505060206125d9868287016124ad565b92505060406125ea8682870161252b565b9150509250925092565b6000806000806080858703121561260a57600080fd5b6000612618878288016124ad565b9450506020612629878288016124ad565b935050604061263a8782880161252b565b925050606085013567ffffffffffffffff81111561265757600080fd5b61266387828801612501565b91505092959194509250565b6000806040838503121561268257600080fd5b6000612690858286016124ad565b92505060206126a1858286016124c2565b9150509250929050565b600080604083850312156126be57600080fd5b60006126cc858286016124ad565b92505060206126dd8582860161252b565b9150509250929050565b6000602082840312156126f957600080fd5b6000612707848285016124d7565b91505092915050565b60006020828403121561272257600080fd5b6000612730848285016124ec565b91505092915050565b60006020828403121561274b57600080fd5b60006127598482850161252b565b91505092915050565b61276b816137e9565b82525050565b61277a816137fb565b82525050565b600061278b82613691565b61279581856136a7565b93506127a581856020860161386c565b6127ae81613a07565b840191505092915050565b60006127c48261369c565b6127ce81856136b8565b93506127de81856020860161386c565b6127e781613a07565b840191505092915050565b60006127fd8261369c565b61280781856136c9565b935061281781856020860161386c565b80840191505092915050565b600081546128308161389f565b61283a81866136c9565b94506001821660008114612855576001811461286657612899565b60ff19831686528186019350612899565b61286f8561367c565b60005b8381101561289157815481890152600182019150602081019050612872565b838801955050505b50505092915050565b60006128af6032836136b8565b91507f4552433732313a207472616e7366657220746f206e6f6e20455243373231526560008301527f63656976657220696d706c656d656e74657200000000000000000000000000006020830152604082019050919050565b6000612915601c836136b8565b91507f4552433732313a20746f6b656e20616c7265616479206d696e746564000000006000830152602082019050919050565b6000612955600a836136c9565b91507f54484952445f574f5244000000000000000000000000000000000000000000006000830152600a82019050919050565b60006129956024836136b8565b91507f4552433732313a207472616e7366657220746f20746865207a65726f2061646460008301527f72657373000000000000000000000000000000000000000000000000000000006020830152604082019050919050565b60006129fb6019836136b8565b91507f4552433732313a20617070726f766520746f2063616c6c6572000000000000006000830152602082019050919050565b6000612a3b6063836136c9565b91507f222c20226465736372697074696f6e223a20224120686967686c79206163636c60008301527f61696d656420636f6c6c656374696f6e206f6620737175617265732e222c202260208301527f696d616765223a2022646174613a696d6167652f7376672b786d6c3b6261736560408301527f36342c00000000000000000000000000000000000000000000000000000000006060830152606382019050919050565b6000612aed600b836136c9565b91507f5345434f4e445f574f52440000000000000000000000000000000000000000006000830152600b82019050919050565b6000612b2d602c836136b8565b91507f4552433732313a206f70657261746f7220717565727920666f72206e6f6e657860008301527f697374656e7420746f6b656e00000000000000000000000000000000000000006020830152604082019050919050565b6000612b93600d836136c9565b91507f3c2f746578743e3c2f7376673e000000000000000000000000000000000000006000830152600d82019050919050565b6000612bd36038836136b8565b91507f4552433732313a20617070726f76652063616c6c6572206973206e6f74206f7760008301527f6e6572206e6f7220617070726f76656420666f7220616c6c00000000000000006020830152604082019050919050565b6000612c39602a836136b8565b91507f4552433732313a2062616c616e636520717565727920666f7220746865207a6560008301527f726f2061646472657373000000000000000000000000000000000000000000006020830152604082019050919050565b6000612c9f6029836136b8565b91507f4552433732313a206f776e657220717565727920666f72206e6f6e657869737460008301527f656e7420746f6b656e00000000000000000000000000000000000000000000006020830152604082019050919050565b6000612d05602e836136b8565b91507f45524337323155524953746f726167653a2055524920736574206f66206e6f6e60008301527f6578697374656e7420746f6b656e0000000000000000000000000000000000006020830152604082019050919050565b6000612d6b6002836136c9565b91507f227d0000000000000000000000000000000000000000000000000000000000006000830152600282019050919050565b6000612dab6020836136b8565b91507f4552433732313a206d696e7420746f20746865207a65726f20616464726573736000830152602082019050919050565b6000612deb6031836136b8565b91507f45524337323155524953746f726167653a2055524920717565727920666f722060008301527f6e6f6e6578697374656e7420746f6b656e0000000000000000000000000000006020830152604082019050919050565b6000612e51602c836136b8565b91507f4552433732313a20617070726f76656420717565727920666f72206e6f6e657860008301527f697374656e7420746f6b656e00000000000000000000000000000000000000006020830152604082019050919050565b6000612eb76029836136b8565b91507f4552433732313a207472616e73666572206f6620746f6b656e2074686174206960008301527f73206e6f74206f776e00000000000000000000000000000000000000000000006020830152604082019050919050565b6000612f1d602f836136b8565b91507f4552433732314d657461646174613a2055524920717565727920666f72206e6f60008301527f6e6578697374656e7420746f6b656e00000000000000000000000000000000006020830152604082019050919050565b6000612f83600a836136c9565b91507f7b226e616d65223a2022000000000000000000000000000000000000000000006000830152600a82019050919050565b6000612fc36021836136b8565b91507f4552433732313a20617070726f76616c20746f2063757272656e74206f776e6560008301527f72000000000000000000000000000000000000000000000000000000000000006020830152604082019050919050565b6000613029600a836136c9565b91507f46495253545f574f5244000000000000000000000000000000000000000000006000830152600a82019050919050565b6000613069601d836136c9565b91507f646174613a6170706c69636174696f6e2f6a736f6e3b6261736536342c0000006000830152601d82019050919050565b60006130a96031836136b8565b91507f4552433732313a207472616e736665722063616c6c6572206973206e6f74206f60008301527f776e6572206e6f7220617070726f7665640000000000000000000000000000006020830152604082019050919050565b600061310f6005836136c9565b91507f434f4c4f520000000000000000000000000000000000000000000000000000006000830152600582019050919050565b61314b81613853565b82525050565b600061315d82846127f2565b915081905092915050565b600061317482856127f2565b915061318082846127f2565b91508190509392505050565b600061319882866127f2565b91506131a482856127f2565b91506131b082846127f2565b9150819050949350505050565b60006131c98287612823565b91506131d582866127f2565b91506131e18285612823565b91506131ed82846127f2565b91506131f882612b86565b915081905095945050505050565b600061321182612948565b915061321d82846127f2565b915081905092915050565b600061323382612ae0565b915061323f82846127f2565b915081905092915050565b600061325582612f76565b915061326182856127f2565b915061326c82612a2e565b915061327882846127f2565b915061328382612d5e565b91508190509392505050565b600061329a8261301c565b91506132a682846127f2565b915081905092915050565b60006132bc8261305c565b91506132c882846127f2565b915081905092915050565b60006132de82613102565b91506132ea82846127f2565b915081905092915050565b600060208201905061330a6000830184612762565b92915050565b60006080820190506133256000830187612762565b6133326020830186612762565b61333f6040830185613142565b81810360608301526133518184612780565b905095945050505050565b60006040820190506133716000830185612762565b61337e6020830184613142565b9392505050565b600060208201905061339a6000830184612771565b92915050565b600060208201905081810360008301526133ba81846127b9565b905092915050565b600060608201905081810360008301526133dc81866127b9565b90506133eb6020830185613142565b6133f86040830184612762565b949350505050565b60006020820190508181036000830152613419816128a2565b9050919050565b6000602082019050818103600083015261343981612908565b9050919050565b6000602082019050818103600083015261345981612988565b9050919050565b60006020820190508181036000830152613479816129ee565b9050919050565b6000602082019050818103600083015261349981612b20565b9050919050565b600060208201905081810360008301526134b981612bc6565b9050919050565b600060208201905081810360008301526134d981612c2c565b9050919050565b600060208201905081810360008301526134f981612c92565b9050919050565b6000602082019050818103600083015261351981612cf8565b9050919050565b6000602082019050818103600083015261353981612d9e565b9050919050565b6000602082019050818103600083015261355981612dde565b9050919050565b6000602082019050818103600083015261357981612e44565b9050919050565b6000602082019050818103600083015261359981612eaa565b9050919050565b600060208201905081810360008301526135b981612f10565b9050919050565b600060208201905081810360008301526135d981612fb6565b9050919050565b600060208201905081810360008301526135f98161309c565b9050919050565b60006020820190506136156000830184613142565b92915050565b6000604051905081810181811067ffffffffffffffff82111715613642576136416139d8565b5b8060405250919050565b600067ffffffffffffffff821115613667576136666139d8565b5b601f19601f8301169050602081019050919050565b60008190508160005260206000209050919050565b600081519050919050565b600081519050919050565b600082825260208201905092915050565b600082825260208201905092915050565b600081905092915050565b60006136df82613853565b91506136ea83613853565b9250827fffffffffffffffffffffffffffffffffffffffffffffffffffffffffffffffff0382111561371f5761371e61394b565b5b828201905092915050565b600061373582613853565b915061374083613853565b9250826137505761374f61397a565b5b828204905092915050565b600061376682613853565b915061377183613853565b9250817fffffffffffffffffffffffffffffffffffffffffffffffffffffffffffffffff04831182151516156137aa576137a961394b565b5b828202905092915050565b60006137c082613853565b91506137cb83613853565b9250828210156137de576137dd61394b565b5b828203905092915050565b60006137f482613833565b9050919050565b60008115159050919050565b60007fffffffff0000000000000000000000000000000000000000000000000000000082169050919050565b600073ffffffffffffffffffffffffffffffffffffffff82169050919050565b6000819050919050565b82818337600083830152505050565b60005b8381101561388a57808201518184015260208101905061386f565b83811115613899576000848401525b50505050565b600060028204905060018216806138b757607f821691505b602082108114156138cb576138ca6139a9565b5b50919050565b60006138dc82613853565b91507fffffffffffffffffffffffffffffffffffffffffffffffffffffffffffffffff82141561390f5761390e61394b565b5b600182019050919050565b600061392582613853565b915061393083613853565b9250826139405761393f61397a565b5b828206905092915050565b7f4e487b7100000000000000000000000000000000000000000000000000000000600052601160045260246000fd5b7f4e487b7100000000000000000000000000000000000000000000000000000000600052601260045260246000fd5b7f4e487b7100000000000000000000000000000000000000000000000000000000600052602260045260246000fd5b7f4e487b7100000000000000000000000000000000000000000000000000000000600052604160045260246000fd5b6000601f19601f8301169050919050565b613a21816137e9565b8114613a2c57600080fd5b50565b613a38816137fb565b8114613a4357600080fd5b50565b613a4f81613807565b8114613a5a57600080fd5b50565b613a6681613853565b8114613a7157600080fd5b5056fe416e204e465420772f20494420257320686173206265656e206d696e74656420746f2025734142434445464748494a4b4c4d4e4f505152535455565758595a6162636465666768696a6b6c6d6e6f707172737475767778797a303132333435363738392b2fa2646970667358221220709bf02f866fea2beee74c77defb718c84c7fe95bc92f59a956009e5c4ce550664736f6c634300080000333c73766720786d6c6e733d27687474703a2f2f7777772e77332e6f72672f323030302f73766727207072657365727665417370656374526174696f3d27784d696e594d696e206d656574272076696577426f783d273020302033353020333530273e3c7374796c653e2e62617365207b2066696c6c3a2077686974653b20666f6e742d66616d696c793a2073657269663b20666f6e742d73697a653a20323470783b207d3c2f7374796c653e3c726563742077696474683d273130302527206865696768743d2731303025272066696c6c3d27272f3e3c7465787420783d273530252720793d273530252720636c6173733d27626173652720646f6d696e616e742d626173656c696e653d276d6964646c652720746578742d616e63686f723d276d6964646c65273e",
  "linkReferences": {},
  "deployedLinkReferences": {}
}